S0130000537072696E74206E6F766F2E73726563AF
S11300000C9424010C94DD040C9479050C940006E2
S11300100C9441010C94D1060C9441010C944101BF
S11300200C9441010C9441010C9441010C94410144
S11300300C9441010C9441010C942E060C94410142
S11300400C9441010C9441010C940A080C94410154
S11300500C9441010C9445070C9441010C9441010A
S11300600C9441010C944101000000000000005F69
S113007000000007000700147F147F14242A7F2A3D
S11300801223130864623649552250000503000008
S1130090001C2241000041221C0014083E081408E0
S11300A0083E0808005030000008080808080060EE
S11300B060000020100804023E5149453E00427F82
S11300C0400042615149462141454B311814127F89
S11300D01027454545393C4A494930017109050312
S11300E03649494936064949291E0036360000007A
S11300F0563600000814224100141414141400414C
S11301002214080201510906324979413E7E111137
S1130110117E7F494949363E414141227F41412276
S11301201C7F494949417F090909013E4149497AEE
S11301307F0808087F00417F41002040413F017F44
S1130140081422417F404040407F020C027F7F041C
S113015008107F3E4141413E7F090909063E415155
S1130160215E7F09192946464949493101017F0128
S1130170013F4040403F1F2040201F3F4038403F48
S11301806314081463070870080761514945430064
S11301907F41410002040810200041417F00040215
S11301A00102044040404040000102040020545435
S11301B054787F48444438384444442038444448BC
S11301C07F3854545418087E0901020C5252523E8E
S11301D07F0804047800447D40002040443D007FB3
S11301E01028440000417F40007C041804787C08F7
S11301F004047838444444387C141414080814144F
S1130200187C7C080404084854545420043F444097
S1130210203C4040207C1C2040201C3C4030403C82
S113022044281028440C5050503C4464544C44001E
S11302300836410000007F00000041360800100825
S1130240081008000000000011241FBECFEFD8E002
S1130250DEBFCDBF11E0A0E0B1E0EAEBF6E202C000
S113026005900D92A63DB107D9F723E0A6EDB1E0C4
S113027001C01D92A63FB207E1F70E94290E0C941B
S11302805B130C9400001F93CF93DF9300D0CDB782
S1130290DEB789836A8388E290E028E230E0F901DE
S11302A020812F7BFC0120838A81882351F088E2FE
S11302B090E028E230E0F90120812860FC012083ED
S11302C009C088E290E028E230E0F9012081277F2C
S11302D0FC01208310E03CC08981882F90E0212F0D
S11302E030E047E050E0BA01621B730B9B0102C08F
S11302F0959587952A95E2F781709927892B51F076
S113030088E290E028E230E0F90120812061FC01DC
S1130310208309C088E290E028E230E0F9012081DE
S11303202F7EFC01208388E290E028E230E0F9018E
S113033020812062FC01208388E290E028E230E002
S1130340F90120812F7DFC012083812F11E0180FFA
S1130350183010F288E290E028E230E0F9012081C0
S11303602064FC0120830F900F90DF91CF911F91A7
S11303700895CF93DF931F92CDB7DEB7898360E0F2
S113038089810E9443010F90DF91CF910895CF930B
S1130390DF931F92CDB7DEB7898361E089810E9424
S11303A043010F90DF91CF9108950F931F93CF9343
S11303B0DF93CDB7DEB76C970FB6F894DEBF0FBEF0
S11303C0CDBF87E290E027E230E0F901208120648C
S11303D0FC01208387E290E027E230E0F9012081EC
S11303E02460FC01208387E290E027E230E0F901F9
S11303F020812860FC01208387E290E027E230E03E
S1130400F90120812061FC01208387E290E027E24A
S113041030E0F90120812062FC01208388E290E031
S113042028E230E0F90120812460FC01208388E285
S113043090E028E230E0F90120812064FC0120836F
S113044080E090E0A0E2B1E489839A83AB83BC832B
S113045020E030E04AE755E469817A818B819C8110
S11304600E94980FDC01CB018D839E83AF83B887F4
S113047020E030E040E85FE36D817E818F819885E4
S11304800E94D50E88232CF481E090E09A87898716
S11304903FC020E03FEF4FE757E46D817E818F81BD
S11304A098850E94930F18164CF520E030E040E246
S11304B051E469817A818B819C810E94980FDC01CF
S11304C0CB01BC01CD010E94DA0EDC01CB019A877D
S11304D089870FC080E991E09C878B878B859C85F9
S11304E00197F1F79C878B8789859A8501979A876D
S11304F0898789859A85892B69F714C06D817E81E6
S11305008F8198850E94DA0EDC01CB019A87898756
S113051089859A859E878D878D859E850197F1F7BC
S11305209E878D8788E290E028E230E0F9012081FF
S11305302B7FFC01208380E090E0ACE8B2E48F875D
S1130540988BA98BBA8B20E030E04AE755E46F859D
S1130550788989899A890E94980FDC01CB018B8B59
S11305609C8BAD8BBE8B20E030E040E85FE36B8971
S11305707C898D899E890E94D50E88232CF481E084
S113058090E0988F8F8B3FC020E03FEF4FE757E418
S11305906B897C898D899E890E94930F18164CF56E
S11305A020E030E040E251E46F85788989899A89B6
S11305B00E94980FDC01CB01BC01CD010E94DA0E30
S11305C0DC01CB01988F8F8B0FC080E991E09A8F6B
S11305D0898F898D9A8D0197F1F79A8F898F8F89E9
S11305E0988D0197988F8F8B8F89988D892B69F7B8
S11305F014C06B897C898D899E890E94DA0EDC0186
S1130600CB01988F8F8B8F89988D9C8F8B8F8B8D3F
S11306109C8D0197F1F79C8F8B8F88E290E028E204
S113062030E0F90120812460FC01208388E290E01D
S113063028E230E0F90120812F7BFC01208381E254
S11306400E94B90183E10E94B90186E00E94B901C8
S113065082EC0E94B90180E20E94B90189E00E9403
S1130660B90180E80E94B90180E40E94B90100E068
S113067010E005C080E00E94C7010F5F1F4F083FD4
S1130680F1E01F07B8F388E00E94B9018CE00E94F2
S1130690B9016C960FB6F894DEBF0FBECDBFDF91E3
S11306A0CF911F910F9108950F931F93CF93DF93D1
S11306B0CDB7DEB780E80E94B90180E40E94B90199
S11306C01092CE031092CF0300E010E007C0C801DF
S11306D08A529E4FFC0110820F5F1F4F083FF1E0CA
S11306E01F07A8F3DF91CF911F910F910895CF9326
S11306F0DF9300D000D01F92CDB7DEB78B836C831D
S11307004D838C81869586958695882F90E044E567
S1130710489F9001499F300D11248B81882F90E0D0
S1130720820F931F8A529E4F9A8389838D818823D7
S1130730C9F089819A81FC018081482F8C81882F9E
S113074090E09C012770332781E090E002C0880F7D
S1130750991F2A95E2F7842B282F89819A81FC011D
S1130760208319C089819A81FC018081482F8C8162
S1130770882F90E09C012770332781E090E002C02D
S1130780880F991F2A95E2F780958423282F898161
S11307909A81FC0120830F900F900F900F900F907F
S11307A0DF91CF9108950F931F93CF93DF93CDB72C
S11307B0DEB727970FB6F894DEBF0FBECDBF8C838C
S11307C06D8310E065C000E04EC08C81882F90E0FE
S11307D09C01205231099D81812F692F0E942D1087
S11307E0482F50E0C901880F991F880F991F820F65
S11307F0931F840F951F88599F4F9A8389838981FA
S11308009A81FC0184918B838B81282F30E09D8118
S1130810802F692F0E942D10882F90E0A90102C01B
S1130820559547958A95E2F7CA0181709927892BD6
S113083061F08091CF03982F900F8091CE03810FA8
S113084041E0692F0E9477030BC08091CF03982F5A
S1130850900F8091CE03810F40E0692F0E947703AF
S1130860802F01E0080F402F50E08D81282F30E0C9
S1130870C901880F991F880F991F880F991F821B20
S1130880930B481759070CF4A0CF812F11E0180FD0
S1130890412F50E08D81282F30E0C901880F991F26
S11308A0880F991F820F931F481759070CF48BCF99
S11308B02091CE039D81892F880F880F890F820F85
S11308C08F5F8093CE038091CE03843570F01092B5
S11308D0CE032091CF039D81892F880F880F880F25
S11308E0891B820F8F5F8093CF038091CF03803366
S11308F020F01092CE031092CF0327960FB6F894EF
S1130900DEBF0FBECDBFDF91CF911F910F91089530
S1130910CF93DF9300D01F92CDB7DEB79A8389833C
S11309206B830CC089819A819C012F5F3F4F3A836E
S11309302983FC0180816B810E94D30389819A8180
S1130940FC018081882371F70F900F900F90DF9145
S1130950CF910895CF93DF9300D0CDB7DEB78983CD
S11309606A8389818093CE038A818093CF030F9019
S11309700F90DF91CF9108950F931F93CF93DF933F
S1130980CDB7DEB780E80E94B90180E40E94B901C6
S113099000E010E009C0C8018A529E4FFC0180812A
S11309A00E94C7010F5F1F4F083FF1E01F0798F334
S11309B0DF91CF911F910F9108951F920F92009094
S11309C05F000F9211242F933F934F935F936F9384
S11309D08F939F93EF93FF93CF93DF93CDB7DEB7BE
S11309E08091D303882F90E08330910509F43DC0B2
S11309F08430910534F48130910551F0029799F0D7
S1130A0067C084309105E1F1059709F44DC060C0D9
S1130A10809100018E3130F4809100018F5F8093CA
S1130A20000156C055C08091E1039091E2038436E1
S1130A30910548F48091E1039091E2030A96909322
S1130A40E2038093E1038AE890E04091E10350914E
S1130A50E20364E1649F9001659F300D11242053EB
S1130A60384FFC013183208333C08091D403883014
S1130A7030F48091D4038F5F8093D40329C028C0BD
S1130A80809101018E3128F4809101018F5F809360
S1130A900101809101018A3120F081E08093D50326
S1130AA017C01092D50314C08091D603882329F46B
S1130AB08091D6038F5F8093D6038091D6038130D3
S1130AC021F48CE08093000102C01092D603000050
S1130AD0DF91CF91FF91EF919F918F916F915F91F2
S1130AE04F913F912F910F9000925F000F901F90B4
S1130AF018951F920F9200905F000F9211242F936C
S1130B003F934F935F936F938F939F93EF93FF93D1
S1130B10CF93DF93CDB7DEB78091D303882F90E0D6
S1130B2083309105E1F18430910534F481309105ED
S1130B3051F0029799F053C084309105D9F105978B
S1130B4009F443C04CC080910001863030F080919C
S1130B50000181508093000142C041C08091E103B3
S1130B609091E203892B49F08091E1039091E20393
S1130B700A979093E2038093E1038AE890E040911E
S1130B80E1035091E20364E1649F9001659F300D9D
S1130B9011242053384FFC013183208320C08091DD
S1130BA0D403882331F08091D40381508093D403FB
S1130BB016C015C080910101863030F0809101018A
S1130BC08150809301010BC00AC08091D603882311
S1130BD029F08091D60381508093D6030000DF91E1
S1130BE0CF91FF91EF919F918F916F915F914F9171
S1130BF03F912F910F9000925F000F901F901895D6
S1130C001F920F9200905F000F9211248F939F9375
S1130C10CF93DF93CDB7DEB78091E703882361F0EC
S1130C208091D303853030F48091D3038F5F809318
S1130C30D30302C01092D3039091E70381E0992378
S1130C4009F080E08093E703DF91CF919F918F912A
S1130C500F9000925F000F901F9018951F920F92B3
S1130C6000905F000F921124EF92FF920F931F9355
S1130C702F933F934F935F936F937F938F939F93A0
S1130C80AF93BF93EF93FF93CF93DF93CDB7DEB7CB
S1130C902E97DEBFCDBF8091D7039091D803A0914A
S1130CA0D903B091DA030196A11DB11D8093D70336
S1130CB09093D803A093D903B093DA03E090D703B9
S1130CC0F090D8030091D9031091DA0380910001C8
S1130CD0282F30E086EA9EE0B9010E943910CB014A
S1130CE09C01990F440B550BC801B7010E944D108C
S1130CF0DC01CB01892B8A2B8B2B19F481E08093A7
S1130D00D0038091D7039091D803A091D903B091D7
S1130D10DA0326E930E040E050E0BC01CD010E9456
S1130D204D10DC01CB01892B8A2B8B2B19F481E02C
S1130D308093D2038091D7039091D803A091D903D3
S1130D40B091DA0328EC30E040E050E0BC01CD0182
S1130D500E944D10DC01CB01892B8A2B8B2B19F4BB
S1130D6081E08093D1032E960FB6F894DEBF0FBEB8
S1130D70CDBFDF91CF91FF91EF91BF91AF919F9143
S1130D808F917F916F915F914F913F912F911F911F
S1130D900F91FF90EF900F9000925F000F901F90C3
S1130DA018951F920F9200905F000F921124EF92FA
S1130DB0FF920F931F932F933F934F935F936F93E0
S1130DC07F938F939F93AF93BF93EF93FF93CF93AF
S1130DD0DF9300D000D0CDB7DEB72091D703309198
S1130DE0D8034091D9035091DA038091E80390919C
S1130DF0E903A091EA03B091EB0379018A01E81AAF
S1130E00F90A0A0B1B0BD801C7019C01AD01220F83
S1130E10331F441F551F80E69AEEA0E0B0E0BC01EA
S1130E20CD010E944D10DA01C9019093DC03809337
S1130E30DB038091D7039091D803A091D903B0919B
S1130E40DA038093E8039093E903A093EA03B09351
S1130E50EB030F900F900F900F90DF91CF91FF91C4
S1130E60EF91BF91AF919F918F917F916F915F911E
S1130E704F913F912F911F910F91FF90EF900F9001
S1130E8000925F000F901F9018951F920F92009090
S1130E905F000F9211242F933F934F935F936F93AF
S1130EA07F938F939F93AF93BF93EF93FF93CF93CE
S1130EB0DF93CDB7DEB78091D203882309F494C0C1
S1130EC08091EC03882F90E0009719F0019799F135
S1130ED05AC088E790E0FC0180819181CC01A0E0B8
S1130EE0B0E0BC01CD010E94090FDC01CB012AE076
S1130EF038E240EA5BE3BC01CD010E94980FDC01BB
S1130F00CB012BED36EB4DE451E4BC01CD010E9445
S1130F10980FDC01CB01BC01CD010E94DA0EDC018B
S1130F20CB019093DE038093DD038CE790E021E412
S1130F30FC01208328C088E790E0FC018081918136
S1130F40CC01A0E0B0E0BC01CD010E94090FDC019E
S1130F50CB0120E93EE34AEF5DE3BC01CD010E94F1
S1130F60980FDC01CB01BC01CD010E94DA0EDC013B
S1130F70CB019093E0038093DF038CE790E020E4BF
S1130F80FC01208300008091EC03882331F48091DC
S1130F90EC038F5F8093EC0302C01092EC0380910A
S1130FA0DD039091DE03829760F08091DD039091E0
S1130FB0DE038A9730F48091DF039091E003CC97AD
S1130FC050F48BE290E02BE230E0F90120812068BC
S1130FD0FC01208309C08BE290E02BE230E0F901B0
S1130FE020812F77FC0120831092D203DF91CF91CF
S1130FF0FF91EF91BF91AF919F918F917F916F91ED
S11310005F914F913F912F910F9000925F000F904D
S11310101F9018951F920F9200905F000F92112459
S11310202F933F934F935F936F937F938F939F93EC
S1131030AF93BF93EF93FF93CF93DF931F92CDB7FB
S1131040DEB786EC90E0FC01808189838091E30324
S11310509091E40383519C4F2981FC01208380916A
S1131060E3039091E40301969093E4038093E303F4
S11310708091E3039091E403099709F052C0109220
S1131080E4031092E30342C08091ED038B3379F5BE
S11310908091F103883759F58091F5038A3339F546
S11310A081E090E09093E6038093E50381E090E093
S11310B09093E4038093E30313C08091E30390913E
S11310C0E40383519C4FFC0180810E94C9088091F4
S11310D0E3039091E40301969093E4038093E30384
S11310E08091E3039091E40308973CF306C082E007
S11310F090E09093E6038093E5038091E30390915D
S1131100E40301969093E4038093E3038091E30363
S11311109091E40309970CF4B7CF1092E403109272
S1131120E3030F90DF91CF91FF91EF91BF91AF91C6
S11311309F918F917F916F915F914F913F912F91EB
S11311400F9000925F000F901F901895CF93DF933C
S113115000D0CDB7DEB79A83898385EC90E02981EE
S11311603A81232F3327FC01208384EC90E02981EA
S1131170FC01208381EC90E028E9FC01208382ECCF
S113118090E026E0FC0120830F900F90DF91CF9137
S11311900895CF93DF931F92CDB7DEB78983000004
S11311A080EC90E0FC018081882F90E08072992788
S11311B0892BB1F386EC90E02981FC0120830F9008
S11311C0DF91CF910895CF93DF93CDB7DEB76097CA
S11311D00FB6F894DEBF0FBECDBF988B8F878F8577
S11311E09889FC018081882309F4EEC08091020172
S11311F0882309F4C6C088E890E0FC0180819181CD
S11312002091D403422F50E06AEF649F9001659FC0
S1131210300D11242053384F8217930709F0A4C0CE
S1131220109202018091D503882309F48BC0809128
S1131230E1039091E203CC9708F084C080E090E051
S1131240AAEFB3E489839A83AB83BC8320E030E0C4
S11312504AE755E469817A818B819C810E94980FC9
S1131260DC01CB018D839E83AF83B88720E030E01F
S113127040E85FE36D817E818F8198850E94D50E61
S113128088232CF481E090E09A8789873FC020E08E
S11312903FEF4FE757E46D817E818F8198850E94EF
S11312A0930F18164CF520E030E040E251E46981D8
S11312B07A818B819C810E94980FDC01CB01BC0157
S11312C0CD010E94DA0EDC01CB019A8789870FC019
S11312D080E991E09C878B878B859C850197F1F74A
S11312E09C878B8789859A8501979A8789878985C1
S11312F09A85892B69F714C06D817E818F819885C9
S11313000E94DA0EDC01CB019A87898789859A8548
S11313109E878D878D859E850197F1F79E878D87A2
S113132088E890E02091D403422F50E06AEF649F54
S11313309001659F300D11242A52394FFC013183ED
S113134020833EC088E890E02091D403422F50E0EF
S11313506AEF649F9001659F300D11242A52394F22
S1131360FC01318320832CC088E890E028E830E039
S1131370F9012081318126503F4FFC0131832083C4
S11313801FC088E890E0FC0180819181803D9740F6
S113139059F481E08093020188E890E02AEC38E077
S11313A0FC01318320830CC088E890E028E830E019
S11313B0F901208131812A5F3109FC0131832083C5
S11313C08F859889FC01108260960FB6F894DEBF71
S11313D00FBECDBFDF91CF910895EF920F93CF93BE
S11313E0DF93CDB7DEB7AF970FB6F894DEBF0FBE6D
S11313F0CDBF98A78FA37AA769A74BA73DA72CA712
S11314000EA7EFA61A8219828FA198A5FC018081EC
S1131410882309F413C48091D303882F90E0823089
S1131420910509F4A2C18330910534F4009781F049
S1131430019709F4E0C0FCC38430910509F409C3A1
S1131440843091050CF44BC2059709F4BCC3F0C376
S11314508AA58F9389A58F9383E091E0892F8F9339
S113146083E091E08F93CE010396292F2F938F93DE
S11314700E9483100F900F900F900F900F900F9079
S11314808091DD039091DE03292F2F938F9383E0C6
S113149091E0892F8F9383E091E08F93CE0183961F
S11314A0292F2F938F930E9483100F900F900F90EA
S11314B00F900F900F908091DF039091E003292FFC
S11314C02F938F9383E091E0892F8F9383E091E0B2
S11314D08F93CE014F96292F2F938F930E948310C1
S11314E00F900F900F900F900F900F900E94540345
S11314F060E080E00E94AA0461E086E091E00E943E
S113150088046AE080E00E94AA04CE01039661E0A8
S11315100E9488046AE088E20E94AA0461E084E1EF
S113152091E00E94880464E180E00E94AA04CE0154
S1131530839661E00E94880464E188E20E94AA0420
S113154061E088E191E00E9488046EE180E00E94FD
S1131550AA04CE014F9661E00E9488046EE188E2FD
S11315600E94AA0461E08BE191E00E9488048091CA
S1131570E5039091E603019729F51A82198215C0B3
S113158089819A81019683519C4FFC0140819E017F
S1131590295F3F4F89819A81820F931FFC01408309
S11315A089819A8101969A83898389819A8107978F
S11315B03CF368E280E00E94AA04CE01079661E051
S11315C00E9488048091E5039091E603029749F410
S11315D068E280E00E94AA0461E081E291E00E9456
S11315E0880468E282E30E94AA0461E087E291E051
S11315F00E9488041DC38BA5882F90E0292F2F9368
S11316008F9383E091E0892F8F9383E091E08F9310
S1131610CE010F96292F2F938F930E9483100F9042
S11316200F900F900F900F900F908DA58F938CA516
S11316308F9383E091E0892F8F9383E091E08F93E0
S1131640CE014396292F2F938F930E9483100F90DE
S11316500F900F900F900F900F908EA5882F90E011
S1131660292F2F938F9383E091E0892F8F9383E029
S113167091E08F93CE014796292F2F938F930E9449
S113168083100F900F900F900F900F900F908FA5D5
S1131690882F90E0292F2F938F9383E091E0892F57
S11316A08F9383E091E08F93CE014B96292F2F9354
S11316B08F930E9483100F900F900F900F900F90B4
S11316C00F900E94540360E080E00E94AA0461E04D
S11316D08CE291E00E9488046AE080E00E94AA04FF
S11316E0CE010F9661E00E9488046AE084E10E94C2
S11316F0AA0461E087E391E00E94880464E180E049
S11317000E94AA04CE01439661E00E94880464E129
S113171084E10E94AA0461E082E491E00E948804CA
S11317206EE180E00E94AA04CE01479661E00E9427
S113173088046EE184E10E94AA0461E08CE491E0F3
S11317400E94880468E280E00E94AA04CE014B96BD
S113175061E00E94880468E284E10E94AA0461E0D6
S113176083E591E00E94880463C28BA5882F90E0F2
S1131770292F2F938F9383E091E0892F8F9383E018
S113178091E08F93CE010F96292F2F938F930E9470
S113179083100F900F900F900F900F900F908DA5C6
S11317A08F938CA58F9383E091E0892F8F9383E0AF
S11317B091E08F93CE014396292F2F938F930E940C
S11317C083100F900F900F900F900F900F908EA595
S11317D0882F90E0292F2F938F9383E091E0892F16
S11317E08F9383E091E08F93CE014796292F2F9317
S11317F08F930E9483100F900F900F900F900F9073
S11318000F908FA5882F90E0292F2F938F9383E03B
S113181091E0892F8F9383E091E08F93CE014B96D3
S1131820292F2F938F930E9483100F900F900F9066
S11318300F900F900F900E94540360E080E00E948C
S1131840AA0461E08CE291E00E9488046AE080E0EE
S11318500E94AA04CE010F9661E00E9488046AE007
S113186084E10E94AA0461E08CE591E00E9488046E
S113187064E180E00E94AA04CE01439661E00E94E4
S1131880880464E184E10E94AA0461E087E691E0AF
S11318900E9488046EE180E00E94AA04CE0147966B
S11318A061E00E9488046EE184E10E94AA0461E080
S11318B08CE491E00E94880468E280E00E94AA041B
S11318C0CE014B9661E00E94880468E284E10E94A4
S11318D0AA0461E083E591E00E948804A9C18BA574
S11318E0882F90E0292F2F938F9383E091E0892F05
S11318F08F9383E091E08F93CE010F96292F2F933E
S11319008F930E9483100F900F900F900F900F9061
S11319100F908DA58F938CA58F9383E091E0892FF1
S11319208F9383E091E08F93CE014396292F2F93D9
S11319308F930E9483100F900F900F900F900F9031
S11319400F908EA5882F90E0292F2F938F9383E0FB
S113195091E0892F8F9383E091E08F93CE01479696
S1131960292F2F938F930E9483100F900F900F9025
S11319700F900F900F908FA5882F90E0292F2F9311
S11319808F9383E091E0892F8F9383E091E08F938D
S1131990CE014B96292F2F938F930E9483100F9083
S11319A00F900F900F900F900F900E94540360E0DF
S11319B080E00E94AA0461E08CE291E00E94880425
S11319C06AE080E00E94AA04CE010F9661E00E94C2
S11319D088046AE084E10E94AA0461E08CE591E055
S11319E00E94880464E180E00E94AA04CE01439628
S11319F061E00E94880464E184E10E94AA0461E039
S1131A0082E491E00E9488046EE180E00E94AA04CE
S1131A10CE01479661E00E9488046EE184E10E9451
S1131A20AA0461E081E791E00E94880468E280E012
S1131A300E94AA04CE014B9661E00E94880468E2E9
S1131A4084E10E94AA0461E083E591E00E94880495
S1131A50EFC08BA5882F90E0292F2F938F9383E0DD
S1131A6091E0892F8F9383E091E08F93CE010F96BD
S1131A70292F2F938F930E9483100F900F900F9014
S1131A800F900F900F908DA58F938CA58F9383E06B
S1131A9091E0892F8F9383E091E08F93CE01439659
S1131AA0292F2F938F930E9483100F900F900F90E4
S1131AB00F900F900F908EA5882F90E0292F2F93D1
S1131AC08F9383E091E0892F8F9383E091E08F934C
S1131AD0CE014796292F2F938F930E9483100F9046
S1131AE00F900F900F900F900F908FA5882F90E07C
S1131AF0292F2F938F9383E091E0892F8F9383E095
S1131B0091E08F93CE014B96292F2F938F930E94B0
S1131B1083100F900F900F900F900F900F900E94D2
S1131B20540360E080E00E94AA0461E08CE291E04A
S1131B300E9488046AE080E00E94AA04CE010F9605
S1131B4061E00E9488046AE084E10E94AA0461E0E2
S1131B508CE591E00E94880464E180E00E94AA047C
S1131B60CE01439661E00E94880464E184E10E940E
S1131B70AA0461E082E491E00E9488046EE180E0BE
S1131B800E94AA04CE01479661E00E9488046EE197
S1131B9084E10E94AA0461E08CE491E00E9488043C
S1131BA068E280E00E94AA04CE014B9661E00E94A4
S1131BB0880468E284E10E94AA0461E088E791E075
S1131BC00E94880435C00E94540360E080E00E94B3
S1131BD0AA0461E081E891E00E9488048091D60320
S1131BE0813099F46AE080E00E94AA0461E080E90F
S1131BF091E00E9488046EE180E00E94AA0461E002
S1131C0087E991E00E94880412C06AE080E00E94A3
S1131C10AA0461E083EB91E00E9488046EE180E015
S1131C200E94AA0461E08DEB91E00E948804000008
S1131C300E94BC048FA198A5FC011082AF960FB638
S1131C40F894DEBF0FBECDBFDF91CF910F91EF901F
S1131C500895EF920F93CF93DF93CDB7DEB784E26D
S1131C6090E02FEBFC01208387E290E02CEFFC0155
S1131C7020838AE290E020EFFC0120838BE290E055
S1131C802CE8FC01208385E290E020E4FC01208321
S1131C908CE790E020E4FC0120838AE790E02FEEBB
S1131CA0FC0120838BE790E0FC0110828EE790E03A
S1131CB023E0FC01208389E690E02AE0FC012083F4
S1131CC08DE390E023E0FC01208388E690E025E0AA
S1131CD0FC0120838DE690E020E1FC0120838BE66B
S1131CE090E020E4FC01208384E490E022E0FC0105
S1131CF0208385E490E023E0FC01208387E490E0E6
S1131D0029EFFC0120838EE690E022E0FC01208391
S1131D1086E890E02FE33CE9FC013183208380E8EE
S1131D2090E022EAFC01208381E890E02AE1FC01B2
S1131D30208378940E94D5010E9454030E94BC041D
S1131D4087E690E00E94A608609101015091D403B7
S1131D502091E1033091E203409100018091DB0383
S1131D609091DC03E62E052FBC0181ED93E00E94E7
S1131D70ED0980ED93E00E94E3088091D603813061
S1131D8051F48BE290E02BE230E0F90120812064F1
S1131D90FC01208309C08BE290E02BE230E0F901E2
S1131DA020812F7BFC012083CFCF0E94460F08F4B3
S1131DB081E008950E94720F88F09F5798F0B92F20
S1131DC09927B751B0F0E1F0660F771F881F991F6C
S1131DD01AF0BA95C9F714C0B13091F00E948C0F73
S1131DE0B1E008950C948C0F672F782F8827B85F83
S1131DF039F0B93FCCF3869577956795B395D9F7C4
S1131E003EF490958095709561957F4F8F4F9F4FCD
S1131E100895E89409C097FB3EF4909580957095D9
S1131E2061957F4F8F4F9F4F9923A9F0F92F96E922
S1131E30BB279395F695879577956795B795F11197
S1131E40F8CFFAF4BB0F11F460FF1BC06F5F7F4F34
S1131E508F4F9F4F16C0882311F096E911C0772346
S1131E6021F09EE8872F762F05C0662371F096E84F
S1131E70862F70E060E02AF09A95660F771F881F1E
S1131E80DAF7880F9695879597F90895990F0008C2
S1131E90550FAA0BE0E8FEEF16161706E807F90738
S1131EA0C0F012161306E407F50798F0621B730BD3
S1131EB0840B950B39F40A2661F0232B242B252B54
S1131EC021F408950A2609F4A140A6958FEF811DF7
S1131ED0811D089557FD9058440F551F59F05F3FD9
S1131EE071F04795880F97FB991F61F09F3F79F038
S1131EF087950895121613061406551FF2CF4695BA
S1131F00F1DF08C0161617061806991FF1CF86953B
S1131F107105610508940895E894BB27662777271F
S1131F20CB0197F908950E94460F08F48FEF0895A6
S1131F300E94AB0F0C941C100E940E1038F00E94EB
S1131F40151020F0952311F00C9405100C940B102F
S1131F5011240C948D0F0E946A0F70F3959FC1F3A6
S1131F60950F50E0551F629FF001729FBB27F00D43
S1131F70B11D639FAA27F00DB11DAA1F649F662798
S1131F80B00DA11D661F829F2227B00DA11D621FE7
S1131F90739FB00DA11D621F839FA00D611D221FA1
S1131FA0749F3327A00D611D231F849F600D211D85
S1131FB0822F762F6A2F11249F5750409AF0F1F008
S1131FC088234AF0EE0FFF1FBB1F661F771F881F71
S1131FD091505040A9F79E3F510580F00C94051094
S1131FE00C948D0F5F3FE4F3983ED4F38695779578
S1131FF06795B795F795E7959F5FC1F7FE2B880F17
S1132000911D9695879597F9089597F99F6780E8AC
S113201070E060E008959FEF80EC089500240A9436
S11320201616170618060906089500240A941216AF
S11320301306140605060895092E0394000C11F4E2
S1132040882352F0BB0F40F4BF2B11F460FF04C08F
S11320506F5F7F4F8F4F9F4F0895991B79E004C0A6
S1132060991F961708F0961B881F7A95C9F78095D3
S1132070089597FB072E16F4009407D077FD09D036
S11320800E946F1007FC05D03EF4909581959F4FF8
S11320900895709561957F4F0895A1E21A2EAA1BA9
S11320A0BB1BFD010DC0AA1FBB1FEE1FFF1FA21704
S11320B0B307E407F50720F0A21BB30BE40BF50B01
S11320C0661F771F881F991F1A9469F7609570958A
S11320D0809590959B01AC01BD01CF010895AA1B89
S11320E0BB1B51E107C0AA1FBB1FA617B70710F0FF
S11320F0A61BB70B881F991F5A95A9F78095909531
S1132100BC01CD010895AEE0B0E0E9E8F0E10C9443
S113211032130D891E8986E08C831A8309838FEF1D
S11321209FE79E838D83AE01475E5F4F6F89788DF5
S1132130CE0101960E94A6102F813885F801E20F86
S1132140F31F10822E96E4E00C944E13ACE0B0E042
S1132150ECEAF0E10C9424137C016B018A01FC018C
S113216017821682838181FFBDC1CE0101964C0185
S1132170F7019381F60193FD859193FF81916F019E
S1132180882309F4ABC1853239F493FD859193FF1B
S113219081916F01853229F4B70190E00E948E127B
S11321A0E7CF512C312C20E02032A0F48B3269F09F
S11321B030F4803259F0833269F420612CC08D32BE
S11321C039F0803339F4216026C02260246023C0B2
S11321D0286021C027FD27C030ED380F3A3078F44D
S11321E026FF06C0FAE05F9E300D1124532E13C063
S11321F08AE0389E300D1124332E20620CC08E32BA
S113220021F426FD6BC1206406C08C3611F42068CD
S113221002C0883641F4F60193FD859193FF8191C4
S11322206F018111C1CF982F9F7D9554933028F46D
S11322300C5F1F4FFFE3F9830DC0833631F0833702
S113224071F0833509F05BC022C0F8018081898375
S11322500E5F1F4F44244394512C540115C0380180
S1132260F2E06F0E711CF801A080B18026FF03C05C
S1132270652D70E002C06FEF7FEFC5012C870E94CF
S113228083122C0183012C852F77222E17C038014D
S1132290F2E06F0E711CF801A080B18026FF03C02C
S11322A0652D70E002C06FEF7FEFC5012C870E949F
S11322B078122C012C852068222E830123FC1BC05C
S11322C0832D90E048165906B0F4B70180E290E0FF
S11322D00E948E123A94F4CFF50127FC859127FED3
S11322E081915F01B70190E00E948E1231103A94FF
S11322F0F1E04F1A51084114510471F7E5C08436D6
S113230011F0893639F5F80127FF07C06081718122
S1132310828193810C5F1F4F08C060817181072EF9
S1132320000C880B990B0E5F1F4F2F76722E97FFB0
S113233009C090958095709561957F4F8F4F9F4F01
S11323402068722E2AE030E0A4010E94C612A82E52
S1132350A81844C0853729F42F7EB22E2AE030E035
S113236025C0F22FF97FBF2E8F36C1F018F48835BF
S113237079F0B4C0803719F0883721F0AFC02F2F1F
S11323802061B22EB4FE0DC08B2D8460B82E09C01E
S113239024FF0AC09F2F9660B92E06C028E030E0C3
S11323A005C020E130E002C020E132E0F801B7FED0
S11323B007C060817181828193810C5F1F4F06C0C9
S11323C06081718180E090E00E5F1F4FA4010E9444
S11323D0C612A82EA818FB2DFF777F2E76FE0BC001
S11323E0372D3E7FA51450F474FE0AC072FC08C059
S11323F0372D3E7E05C0BA2C372D03C0BA2C01C040
S1132400B52C34FF0DC0FE01EA0DF11D808180332F
S113241011F4397E09C032FF06C0B394B39404C0EA
S1132420832F867809F0B39433FD13C030FF06C0C0
S11324305A2CB31418F4530C5B18B32CB31468F46B
S1132440B70180E290E03C870E948E12B3943C85F1
S1132450F5CFB31410F43B1801C0312C34FF12C073
S1132460B70180E390E03C870E948E123C8532FFE6
S113247017C031FD03C088E790E002C088E590E012
S1132480B7010CC0832F867859F031FF02C08BE26C
S113249001C080E237FD8DE2B70190E00E948E1208
S11324A0A51438F4B70180E390E00E948E125A9488
S11324B0F7CFAA94F401EA0DF11D8081B70190E0F1
S11324C00E948E12A110F5CF332009F451CEB7012A
S11324D080E290E00E948E123A94F6CFF701868152
S11324E0978102C08FEF9FEF2C96E2E10C9440138A
S11324F0FC010590615070400110D8F780959095CB
S11325008E0F9F1F0895FC016150704001900110CF
S1132510D8F7809590958E0F9F1F08950F931F9362
S1132520CF93DF93FB01238121FD03C08FEF9FEF46
S113253028C022FF16C04681578124813581421765
S1132540530744F4A081B1819D012F5F3F4F318334
S113255020838C93268137812F5F3F4F37832683D7
S113256010C0EB01092F182F0084F185E02D099587
S1132570892BE1F68E819F8101969F838E83812F23
S1132580902FDF91CF911F910F910895FA01AA27FF
S1132590283051F1203181F1E8946F936E7F6E5FA2
S11325A07F4F8F4F9F4FAF4FB1E03ED0B4E03CD050
S11325B0670F781F891F9A1FA11D680F791F8A1F33
S11325C0911DA11D6A0F711D811D911DA11D20D09A
S11325D009F468943F912AE0269F11243019305D54
S11325E03193DEF6CF010895462F4770405D419345
S11325F0B3E00FD0C9F7F6CF462F4F70405D4A3392
S113260018F0495D31FD4052419302D0A9F7EACF59
S1132610B4E0A6959795879577956795BA95C9F788
S113262000976105710508959B01AC010A2E06947B
S11326305795479537952795BA95C9F7620F731F34
S1132640841F951FA01D08952F923F924F925F9271
S11326506F927F928F929F92AF92BF92CF92DF92AE
S1132660EF92FF920F931F93CF93DF93CDB7DEB713
S1132670CA1BDB0B0FB6F894DEBF0FBECDBF0994A7
S11326802A88398848885F846E847D848C849B84FE
S1132690AA84B984C884DF80EE80FD800C811B810C
S11326A0AA81B981CE0FD11D0FB6F894DEBF0FBE3B
S10D26B0CDBFED010895F894FFCFAB
S11326BA05050125750053696E61697320566974AD
S11326CA6169730062706D00BA43002553704F321A
S11326DA004572726F21006D6D4867005061726126
S11326EA6D6574726F73002D3E526573702F6D6938
S11326FA6E00202025206465204F32002020207699
S113270A6F6C00202020636D48324F0020205265F0
S113271A73702F6D696E002D3E25206465204F323B
S113272A002D3E20766F6C002D3E20636D48324F9B
S113273A0047617320416E657374657369636F0042
S113274A4C696761646F005072657373696F6E6573
S113275A20282D292070617261206465736C696771
S113276A6172004465736C696761646F00507265D5
S113277A7373696F6E6520282B292070617261203A
S109278A6C696761720036
S9030000FC
